{
  "contractName": "Cake",
  "abi": [
    {
      "constant": true,
      "inputs": [
        {
          "name": "",
          "type": "address"
        }
      ],
      "name": "Bakers",
      "outputs": [
        {
          "name": "",
          "type": "bool"
        }
      ],
      "payable": false,
      "stateMutability": "view",
      "type": "function"
    },
    {
      "inputs": [],
      "payable": true,
      "stateMutability": "payable",
      "type": "constructor"
    },
    {
      "constant": false,
      "inputs": [
        {
          "name": "_newBaker",
          "type": "address"
        }
      ],
      "name": "MakeBaker",
      "outputs": [],
      "payable": false,
      "stateMutability": "nonpayable",
      "type": "function"
    },
    {
      "constant": true,
      "inputs": [],
      "name": "PrepareCake",
      "outputs": [
        {
          "name": "",
          "type": "string"
        }
      ],
      "payable": false,
      "stateMutability": "view",
      "type": "function"
    },
    {
      "constant": false,
      "inputs": [],
      "name": "NextInst",
      "outputs": [],
      "payable": false,
      "stateMutability": "nonpayable",
      "type": "function"
    },
    {
      "constant": true,
      "inputs": [
        {
          "name": "biscuit",
          "type": "uint256"
        },
        {
          "name": "cocoa",
          "type": "uint256"
        },
        {
          "name": "butter",
          "type": "uint256"
        },
        {
          "name": "marshmello",
          "type": "uint256"
        },
        {
          "name": "cheese",
          "type": "uint256"
        }
      ],
      "name": "MakeCake",
      "outputs": [
        {
          "name": "",
          "type": "string"
        }
      ],
      "payable": false,
      "stateMutability": "view",
      "type": "function"
    },
    {
      "constant": false,
      "inputs": [],
      "name": "resetInstruction",
      "outputs": [],
      "payable": false,
      "stateMutability": "nonpayable",
      "type": "function"
    },
    {
      "constant": false,
      "inputs": [],
      "name": "KillSwitch",
      "outputs": [],
      "payable": false,
      "stateMutability": "nonpayable",
      "type": "function"
    }
  ],
  "bytecode": "0x608060405261011860005560146001556078600255607860035560a0600455610200604051908101604052806040805190810160405280601381526020017f47726f756e64205072657061726174696f6e3a000000000000000000000000008152508152602001606060405190810160405280602f81526020017f3238306720736f6c69642c206472792062697363756974732076696f6c656e7481526020017f6c79206469736d656d62657265642e00000000000000000000000000000000008152508152602001606060405190810160405280602481526020017f32306720636f636f6120706f776465722c206461726b206173206f757220736f81526020017f756c732e000000000000000000000000000000000000000000000000000000008152508152602001606060405190810160405280602881526020017f3132306720736c6f776c7920616e64207061696e66756c6c79206d6f6c74656e81526020017f206275747465722e000000000000000000000000000000000000000000000000815250815260200160e06040519081016040528060b581526020016200129260b591398152602001608060405190810160405280605581526020017f50757420697420696e207468652066726964676520666f72203130204d696e7581526020017f74657320616e642074616b65206974206f7574207269676874206265666f726581526020017f20697420667265657a657320746f2064656174682e00000000000000000000008152508152602001608060405190810160405280604681526020017f50757420697420696e746f20746865206f76656e20616e6420746f727475726581526020017f20796f75722076696374696d20666f72203135204d696e75746573206279203181526020017f3830c2b0432e00000000000000000000000000000000000000000000000000008152508152602001606060405190810160405280602c81526020017f4e6f7720426567696e20707265706172696e67204d617273686d656c6c6f2d4381526020017f6865657365204372656d653a0000000000000000000000000000000000000000815250815260200160a060405190810160405280607e81526020017f5075742031323067204d617273686d616c6c6f777320696e206120626f776c2c81526020017f20616464203136306720437265616d2043686565736520616e6420707574206981526020017f7420776974686f7574206d6978696e6720696e746f20746865206d6963726f7781526020017f61766520666f722031204d696e757465206279203630302057617474732e0000815250815260200160a060405190810160405280606381526020017f4265617420746865206d697874757265207570207769746820796f757220776881526020017f69736b20756e74696c20697420646f65736e6074206c6f6f6b206c696b65206981526020017f74206f726967696e616c6c792064696420616e796d6f7265202841206372656d81526020017f65292e00000000000000000000000000000000000000000000000000000000008152508152602001606060405190810160405280602281526020017f4164642031323067204d696c6b20616e6420636f6e74696e7565206d6978696e81526020017f672e0000000000000000000000000000000000000000000000000000000000008152508152602001608060405190810160405280604a81526020017f41646420612074656173706f6f6e206f66206c656d6f6e206a7569636520616e81526020017f6420636f6e74696e7565206d6978696e6720666f72206120636f75706c65206f81526020017f66207365636f6e64732e00000000000000000000000000000000000000000000815250815260200160a060405190810160405280606681526020017f4e6f7720706f757220746865206c69717569666965642072656d61696e73206981526020017f6e746f207468652070726576696f75736c79206d6164652063616b652067726f81526020017f756e6420736f2069742066696c6c732074686520686f6c6520696e206974732081526020017f68656172742e00000000000000000000000000000000000000000000000000008152508152602001606060405190810160405280602e81526020017f5075742065766572797468696e6720696e207468652066726964676520666f7281526020017f20616e6f7468657220686f75722e00000000000000000000000000000000000081525081526020016040805190810160405280600781526020017f4561742069742e000000000000000000000000000000000000000000000000008152508152602001606060405190810160405280602f81526020017f436c65616e20796f7572206d65737320757020736f20796f752063616e206d6181526020017f6b6520616e6f74686572206f6e652e0000000000000000000000000000000000815250815250600790601062000721929190620007c6565b5060006017556001600660003373ffffffffffffffffffffffffffffffffffffffff1673ffffffffffffffffffffffffffffffffffffffff16815260200190815260200160002060006101000a81548160ff02191690831515021790555033600560006101000a81548173ffffffffffffffffffffffffffffffffffffffff021916908373ffffffffffffffffffffffffffffffffffffffff1602179055506200094c565b82601081019282156200080d579160200282015b828111156200080c578251829080519060200190620007fb92919062000820565b5091602001919060010190620007da565b5b5090506200081c9190620008a7565b5090565b828054600181600116156101000203166002900490600052602060002090601f016020900481019282601f106200086357805160ff191683800117855562000894565b8280016001018555821562000894579182015b828111156200089357825182559160200191906001019062000876565b5b509050620008a39190620008d8565b5090565b620008d591905b80821115620008d15760008181620008c7919062000900565b50600101620008ae565b5090565b90565b620008fd91905b80821115620008f9576000816000905550600101620008df565b5090565b90565b50805460018160011615610100020316600290046000825580601f1062000928575062000949565b601f016020900490600052602060002090810190620009489190620008d8565b5b50565b610936806200095c6000396000f300608060405260043610610083576000357c0100000000000000000000000000000000000000000000000000000000900463ffffffff168063021dd9f1146100885780634dab372d14610156578063730bd713146101b15780637fbea80814610241578063a7e5166514610258578063c7c8b07b1461029b578063cc947ad4146102b2575b600080fd5b34801561009457600080fd5b506100db60048036038101908080359060200190929190803590602001909291908035906020019092919080359060200190929190803590602001909291905050506102c9565b6040518080602001828103825283818151815260200191508051906020019080838360005b8381101561011b578082015181840152602081019050610100565b50505050905090810190601f1680156101485780820380516001836020036101000a031916815260200191505b509250505060405180910390f35b34801561016257600080fd5b50610197600480360381019080803573ffffffffffffffffffffffffffffffffffffffff1690602001909291905050506105bc565b604051808215151515815260200191505060405180910390f35b3480156101bd57600080fd5b506101c66105dc565b6040518080602001828103825283818151815260200191508051906020019080838360005b838110156102065780820151818401526020810190506101eb565b50505050905090810190601f1680156102335780820380516001836020036101000a031916815260200191505b509250505060405180910390f35b34801561024d57600080fd5b50610256610796565b005b34801561026457600080fd5b50610299600480360381019080803573ffffffffffffffffffffffffffffffffffffffff1690602001909291905050506107a9565b005b3480156102a757600080fd5b506102b0610865565b005b3480156102be57600080fd5b506102c7610900565b005b60606000548610806102dc575060005486115b1561034557606060405190810160405280603281526020017f4368616e6765204269736375697420636f6e74656e74206163636f7264696e6781526020017f20746f20496e737472756374696f6e732e20000000000000000000000000000081525090506105b3565b600154851080610356575060015485115b156103bf57606060405190810160405280603081526020017f4368616e676520436f636f6120636f6e74656e74206163636f7264696e67207481526020017f6f20496e737472756374696f6e732e200000000000000000000000000000000081525090506105b3565b6002548410806103d0575060025484115b1561043957606060405190810160405280603181526020017f4368616e67652042757474657220636f6e74656e74206163636f7264696e672081526020017f746f20496e737472756374696f6e732e2000000000000000000000000000000081525090506105b3565b60035483108061044a575060035483115b156104b357606060405190810160405280603581526020017f4368616e6765204d617273686d656c6c6f20636f6e74656e74206163636f726481526020017f696e6720746f20496e737472756374696f6e732e20000000000000000000000081525090506105b3565b6004548210806104c4575060045482115b1561052d57606060405190810160405280603181526020017f4368616e67652043686565736520636f6e74656e74206163636f7264696e672081526020017f746f20496e737472756374696f6e732e2000000000000000000000000000000081525090506105b3565b608060405190810160405280604c81526020017f436f6e67726174756c6174696f6e732120596f752068617665206d616465207981526020017f6f7573656c662061207065726665637420416c6963652050657465722073696781526020017f6e61747572652043616b652e000000000000000000000000000000000000000081525090505b95945050505050565b60066020528060005260406000206000915054906101000a900460ff1681565b60606000601754141561067357608060405190810160405280604881526020017f4c65746073206d616b6520612064656c6963696f757320436f636f612d42697381526020017f637569742043616b652077697468204d617273686d616c6c6f772d436865657381526020017f65204372656d652e0000000000000000000000000000000000000000000000008152509050610793565b600e60175411156106e257606060405190810160405280602381526020017f596f7560726520646f6e652e20416c6963652069732070726f7564206f66207981526020017f6f752e00000000000000000000000000000000000000000000000000000000008152509050610793565b60076001601754036010811015156106f657fe5b018054600181600116156101000203166002900480601f01602080910402602001604051908101604052809291908181526020018280546001816001161561010002031660029004801561078b5780601f106107605761010080835404028352916020019161078b565b820191906000526020600020905b81548152906001019060200180831161076e57829003601f168201915b505050505090505b90565b6001601760008282540192505081905550565b3360011515600660003373ffffffffffffffffffffffffffffffffffffffff1673ffffffffffffffffffffffffffffffffffffffff16815260200190815260200160002060009054906101000a900460ff16151514151561080957600080fd5b6001600660008473ffffffffffffffffffffffffffffffffffffffff1673ffffffffffffffffffffffffffffffffffffffff16815260200190815260200160002060006101000a81548160ff0219169083151502179055505050565b3360011515600660003373ffffffffffffffffffffffffffffffffffffffff1673ffffffffffffffffffffffffffffffffffffffff16815260200190815260200160002060009054906101000a900460ff1615151415156108c557600080fd5b600560009054906101000a900473ffffffffffffffffffffffffffffffffffffffff1673ffffffffffffffffffffffffffffffffffffffff16ff5b60006017819055505600a165627a7a7230582088137b95556aad0d0c0f4be33b9e0806799b8bf3a3e3728e5eaa08b30fa163840029466f7263652065766572797468696e6720696e20612063616b652074696e20776974682061206469616d65746572206f6620323620636d20616e642075736520612063757020746f20707265737320796f75722076696374696d2074696768746c7920616761696e73742069742c206c656176696e67206120626f72646572206f66206d61796265203120636d207468617420697320616c736f207072657373656420616761696e7374207468652073696465732e",
  "source": "pragma solidity ^0.4.19;\n\ncontract CakeRequirements\n{\n    //Ground Requirements\n    uint BISC_MASS=280;\n    uint COCOA_MASS=20;\n    uint BUTTER_MASS=120;\n\n    //MarshmelloCheeseCreme Requirements\n    uint MARSH_MASS=120;\n    uint CHEESE_MASS=160;\n\n}\n\ncontract Cake is CakeRequirements\n{\n    address creator;\n\n    function Cake() public payable\n    {\n            Bakers[msg.sender]=true;\n            creator=msg.sender;\n    }\n\n    mapping(address => bool) public Bakers;\n\n    modifier AliceBakers(address _account)\n    {\n        require(Bakers[msg.sender] == true);\n            _;\n    }\n\n    function MakeBaker(address _newBaker) public AliceBakers(msg.sender)\n    {\n        Bakers[_newBaker]=true;\n    }\n\n    //Ground Prep Instructions\n    string[16] Preparation=[    \"Ground Preparation:\",\n                                \"280g solid, dry biscuits violently dismembered.\",\n                                \"20g cocoa powder, dark as our souls.\",\n                                \"120g slowly and painfully molten butter.\",\n                                \"Force everything in a cake tin with a diameter of 26 cm and use a cup to press your victim tightly against it, leaving a border of maybe 1 cm that is also pressed against the sides.\",\n                                \"Put it in the fridge for 10 Minutes and take it out right before it freezes to death.\",\n                                \"Put it into the oven and torture your victim for 15 Minutes by 180°C.\",\n                                \"Now Begin preparing Marshmello-Cheese Creme:\",\n                                \"Put 120g Marshmallows in a bowl, add 160g Cream Cheese and put it without mixing into the microwave for 1 Minute by 600 Watts.\",\n                                \"Beat the mixture up with your whisk until it doesn`t look like it originally did anymore (A creme).\",\n                                \"Add 120g Milk and continue mixing.\",\n                                \"Add a teaspoon of lemon juice and continue mixing for a couple of seconds.\",\n                                \"Now pour the liquified remains into the previously made cake ground so it fills the hole in its heart.\",\n                                \"Put everything in the fridge for another hour.\",\n                                \"Eat it.\",\n                                \"Clean your mess up so you can make another one.\"\n                            ];\n\n    uint countInst = 0;\n\n    function PrepareCake() public constant returns(string)\n    {\n        if(countInst == 0)\n            return(\"Let`s make a delicious Cocoa-Biscuit Cake with Marshmallow-Cheese Creme.\");\n\n        if(countInst > 14)\n            return(\"You`re done. Alice is proud of you.\");\n\n        return Preparation[countInst-1];\n    }\n\n    function NextInst() public {countInst+=1;}\n\n    function MakeCake(uint biscuit, uint cocoa, uint butter, uint marshmello, uint cheese) public view returns(string)\n    {\n        if( biscuit < BISC_MASS || biscuit > BISC_MASS )\n            return(\"Change Biscuit content according to Instructions. \");\n\n        if(cocoa < COCOA_MASS || cocoa > COCOA_MASS)\n            return(\"Change Cocoa content according to Instructions. \");\n\n        if(butter < BUTTER_MASS || butter > BUTTER_MASS)\n            return(\"Change Butter content according to Instructions. \");\n\n        if(marshmello < MARSH_MASS || marshmello > MARSH_MASS)\n            return(\"Change Marshmello content according to Instructions. \");\n\n        if(cheese < CHEESE_MASS || cheese > CHEESE_MASS)\n            return(\"Change Cheese content according to Instructions. \");\n\n        return(\"Congratulations! You have made youself a perfect Alice Peter signature Cake.\");\n\n    }\n    function resetInstruction() public {countInst=0;}\n\n    function KillSwitch() public AliceBakers(msg.sender)\n    {\n        selfdestruct(creator);\n    }\n}\n",
  "sourcePath": "/home/neosp/Test/Cocoa-Biscuit-Cake-with-Marshmallow-Cheese-Creme/Ethereum/contracts/Cake.sol",
  "compiler": {
    "name": "solc",
    "version": "0.4.23+commit.124ca40d.Emscripten.clang"
  },
  "schemaVersion": "2.0.0",
  "updatedAt": "2018-05-16T19:13:03.474Z"
}